{
  "_format": "hh-sol-artifact-1",
  "contractName": "Comments",
  "sourceName": "contracts/Comments.sol",
  "abi": [
    {
      "anonymous": false,
      "inputs": [
        {
          "components": [
            {
              "internalType": "uint32",
              "name": "id",
              "type": "uint32"
            },
            {
              "internalType": "string",
              "name": "topic",
              "type": "string"
            },
            {
              "internalType": "address",
              "name": "creator_address",
              "type": "address"
            },
            {
              "internalType": "string",
              "name": "message",
              "type": "string"
            },
            {
              "internalType": "uint256",
              "name": "created_at",
              "type": "uint256"
            }
          ],
          "indexed": false,
          "internalType": "struct Comments.Comment",
          "name": "comment",
          "type": "tuple"
        }
      ],
      "name": "CommentAdded",
      "type": "event"
    },
    {
      "inputs": [
        {
          "internalType": "string",
          "name": "topic",
          "type": "string"
        },
        {
          "internalType": "string",
          "name": "message",
          "type": "string"
        }
      ],
      "name": "addComment",
      "outputs": [],
      "stateMutability": "nonpayable",
      "type": "function"
    },
    {
      "inputs": [
        {
          "internalType": "string",
          "name": "topic",
          "type": "string"
        }
      ],
      "name": "getComments",
      "outputs": [
        {
          "components": [
            {
              "internalType": "uint32",
              "name": "id",
              "type": "uint32"
            },
            {
              "internalType": "string",
              "name": "topic",
              "type": "string"
            },
            {
              "internalType": "address",
              "name": "creator_address",
              "type": "address"
            },
            {
              "internalType": "string",
              "name": "message",
              "type": "string"
            },
            {
              "internalType": "uint256",
              "name": "created_at",
              "type": "uint256"
            }
          ],
          "internalType": "struct Comments.Comment[]",
          "name": "",
          "type": "tuple[]"
        }
      ],
      "stateMutability": "view",
      "type": "function"
    }
  ],
  "bytecode": "0x608060405234801561001057600080fd5b50610d3a806100206000396000f3fe608060405234801561001057600080fd5b50600436106100365760003560e01c806370c63fcc1461003b578063ae5ff9051461006b575b600080fd5b6100556004803603810190610050919061056d565b610087565b6040516100629190610802565b60405180910390f35b61008560048036038101906100809190610824565b6102b1565b005b60606001838360405161009b9291906108e4565b9081526020016040518091039020805480602002602001604051908101604052809291908181526020016000905b828210156102a557838290600052602060002090600502016040518060a00160405290816000820160009054906101000a900463ffffffff1663ffffffff1663ffffffff1681526020016001820180546101229061092c565b80601f016020809104026020016040519081016040528092919081815260200182805461014e9061092c565b801561019b5780601f106101705761010080835404028352916020019161019b565b820191906000526020600020905b81548152906001019060200180831161017e57829003601f168201915b505050505081526020016002820160009054906101000a900473ffffffffffffffffffffffffffffffffffffffff1673ffffffffffffffffffffffffffffffffffffffff1673ffffffffffffffffffffffffffffffffffffffff16815260200160038201805461020a9061092c565b80601f01602080910402602001604051908101604052809291908181526020018280546102369061092c565b80156102835780601f1061025857610100808354040283529160200191610283565b820191906000526020600020905b81548152906001019060200180831161026657829003601f168201915b50505050508152602001600482015481525050815260200190600101906100c9565b50505050905092915050565b60006040518060a0016040528060008054906101000a900463ffffffff1663ffffffff16815260200186868080601f016020809104026020016040519081016040528093929190818152602001838380828437600081840152601f19601f8201169050808301925050505050505081526020013373ffffffffffffffffffffffffffffffffffffffff16815260200184848080601f016020809104026020016040519081016040528093929190818152602001838380828437600081840152601f19601f820116905080830192505050505050508152602001428152509050600185856040516103a29291906108e4565b908152602001604051809103902081908060018154018082558091505060019003906000526020600020906005020160009091909190915060008201518160000160006101000a81548163ffffffff021916908363ffffffff16021790555060208201518160010190816104169190610b38565b5060408201518160020160006101000a81548173ffffffffffffffffffffffffffffffffffffffff021916908373ffffffffffffffffffffffffffffffffffffffff16021790555060608201518160030190816104739190610b38565b5060808201518160040155505060008081819054906101000a900463ffffffff16809291906104a190610c39565b91906101000a81548163ffffffff021916908363ffffffff160217905550507fe77ab75f376cc3dcd9506272f00c91ec2ff78acb373dc7b53aedecb1da207022816040516104ef9190610ce2565b60405180910390a15050505050565b600080fd5b600080fd5b600080fd5b600080fd5b600080fd5b60008083601f84011261052d5761052c610508565b5b8235905067ffffffffffffffff81111561054a5761054961050d565b5b60208301915083600182028301111561056657610565610512565b5b9250929050565b60008060208385031215610584576105836104fe565b5b600083013567ffffffffffffffff8111156105a2576105a1610503565b5b6105ae85828601610517565b92509250509250929050565b600081519050919050565b600082825260208201905092915050565b6000819050602082019050919050565b600063ffffffff82169050919050565b6105ff816105e6565b82525050565b600081519050919050565b600082825260208201905092915050565b60005b8381101561063f578082015181840152602081019050610624565b60008484015250505050565b6000601f19601f8301169050919050565b600061066782610605565b6106718185610610565b9350610681818560208601610621565b61068a8161064b565b840191505092915050565b600073ffffffffffffffffffffffffffffffffffffffff82169050919050565b60006106c082610695565b9050919050565b6106d0816106b5565b82525050565b6000819050919050565b6106e9816106d6565b82525050565b600060a08301600083015161070760008601826105f6565b506020830151848203602086015261071f828261065c565b915050604083015161073460408601826106c7565b506060830151848203606086015261074c828261065c565b915050608083015161076160808601826106e0565b508091505092915050565b600061077883836106ef565b905092915050565b6000602082019050919050565b6000610798826105ba565b6107a281856105c5565b9350836020820285016107b4856105d6565b8060005b858110156107f057848403895281516107d1858261076c565b94506107dc83610780565b925060208a019950506001810190506107b8565b50829750879550505050505092915050565b6000602082019050818103600083015261081c818461078d565b905092915050565b6000806000806040858703121561083e5761083d6104fe565b5b600085013567ffffffffffffffff81111561085c5761085b610503565b5b61086887828801610517565b9450945050602085013567ffffffffffffffff81111561088b5761088a610503565b5b61089787828801610517565b925092505092959194509250565b600081905092915050565b82818337600083830152505050565b60006108cb83856108a5565b93506108d88385846108b0565b82840190509392505050565b60006108f18284866108bf565b91508190509392505050565b7f4e487b7100000000000000000000000000000000000000000000000000000000600052602260045260246000fd5b6000600282049050600182168061094457607f821691505b602082108103610957576109566108fd565b5b50919050565b7f4e487b7100000000000000000000000000000000000000000000000000000000600052604160045260246000fd5b60008190508160005260206000209050919050565b60006020601f8301049050919050565b600082821b905092915050565b6000600883026109ee7fffffffffffffffffffffffffffffffffffffffffffffffffffffffffffffffff826109b1565b6109f886836109b1565b95508019841693508086168417925050509392505050565b6000819050919050565b6000610a35610a30610a2b846106d6565b610a10565b6106d6565b9050919050565b6000819050919050565b610a4f83610a1a565b610a63610a5b82610a3c565b8484546109be565b825550505050565b600090565b610a78610a6b565b610a83818484610a46565b505050565b5b81811015610aa757610a9c600082610a70565b600181019050610a89565b5050565b601f821115610aec57610abd8161098c565b610ac6846109a1565b81016020851015610ad5578190505b610ae9610ae1856109a1565b830182610a88565b50505b505050565b600082821c905092915050565b6000610b0f60001984600802610af1565b1980831691505092915050565b6000610b288383610afe565b9150826002028217905092915050565b610b4182610605565b67ffffffffffffffff811115610b5a57610b5961095d565b5b610b64825461092c565b610b6f828285610aab565b600060209050601f831160018114610ba25760008415610b90578287015190505b610b9a8582610b1c565b865550610c02565b601f198416610bb08661098c565b60005b82811015610bd857848901518255600182019150602085019450602081019050610bb3565b86831015610bf55784890151610bf1601f891682610afe565b8355505b6001600288020188555050505b505050505050565b7f4e487b7100000000000000000000000000000000000000000000000000000000600052601160045260246000fd5b6000610c44826105e6565b915063ffffffff8203610c5a57610c59610c0a565b5b600182019050919050565b600060a083016000830151610c7d60008601826105f6565b5060208301518482036020860152610c95828261065c565b9150506040830151610caa60408601826106c7565b5060608301518482036060860152610cc2828261065c565b9150506080830151610cd760808601826106e0565b508091505092915050565b60006020820190508181036000830152610cfc8184610c65565b90509291505056fea2646970667358221220ab0807d0c547348d87cf4003d792e775a08d7ea6e7c78f90fe23b90e70af90d364736f6c63430008110033",
  "linkReferences": {},
  "deployedLinkReferences": {}
}