{
  "_format": "hh-sol-artifact-1",
  "contractName": "Comments",
  "sourceName": "contracts/Comments.sol",
  "abi": [
    {
      "anonymous": false,
      "inputs": [
        {
          "components": [
            {
              "internalType": "uint32",
              "name": "id",
              "type": "uint32"
            },
            {
              "internalType": "string",
              "name": "topic",
              "type": "string"
            },
            {
              "internalType": "address",
              "name": "creator_address",
              "type": "address"
            },
            {
              "internalType": "string",
              "name": "message",
              "type": "string"
            },
            {
              "internalType": "uint256",
              "name": "created_at",
              "type": "uint256"
            }
          ],
          "indexed": false,
          "internalType": "struct Comments.Comment",
          "name": "comment",
          "type": "tuple"
        }
      ],
      "name": "CommentAdded",
      "type": "event"
    },
    {
      "inputs": [
        {
          "internalType": "string",
          "name": "topic",
          "type": "string"
        },
        {
          "internalType": "string",
          "name": "message",
          "type": "string"
        }
      ],
      "name": "addComment",
      "outputs": [],
      "stateMutability": "nonpayable",
      "type": "function"
    },
    {
      "inputs": [
        {
          "internalType": "string",
          "name": "topic",
          "type": "string"
        }
      ],
      "name": "getComments",
      "outputs": [
        {
          "components": [
            {
              "internalType": "uint32",
              "name": "id",
              "type": "uint32"
            },
            {
              "internalType": "string",
              "name": "topic",
              "type": "string"
            },
            {
              "internalType": "address",
              "name": "creator_address",
              "type": "address"
            },
            {
              "internalType": "string",
              "name": "message",
              "type": "string"
            },
            {
              "internalType": "uint256",
              "name": "created_at",
              "type": "uint256"
            }
          ],
          "internalType": "struct Comments.Comment[]",
          "name": "",
          "type": "tuple[]"
        }
      ],
      "stateMutability": "view",
      "type": "function"
    }
  ],
  "bytecode": "0x608060405234801561001057600080fd5b50610b10806100206000396000f3fe608060405234801561001057600080fd5b50600436106100365760003560e01c806370c63fcc1461003b578063ae5ff9051461006b575b600080fd5b610055600480360381019061005091906105f9565b610087565b60405161006291906108da565b60405180910390f35b6100856004803603810190610080919061063e565b6102b1565b005b60606001838360405161009b9291906108c1565b9081526020016040518091039020805480602002602001604051908101604052809291908181526020016000905b828210156102a557838290600052602060002090600502016040518060a00160405290816000820160009054906101000a900463ffffffff1663ffffffff1663ffffffff16815260200160018201805461012290610a0c565b80601f016020809104026020016040519081016040528092919081815260200182805461014e90610a0c565b801561019b5780601f106101705761010080835404028352916020019161019b565b820191906000526020600020905b81548152906001019060200180831161017e57829003601f168201915b505050505081526020016002820160009054906101000a900473ffffffffffffffffffffffffffffffffffffffff1673ffffffffffffffffffffffffffffffffffffffff1673ffffffffffffffffffffffffffffffffffffffff16815260200160038201805461020a90610a0c565b80601f016020809104026020016040519081016040528092919081815260200182805461023690610a0c565b80156102835780601f1061025857610100808354040283529160200191610283565b820191906000526020600020905b81548152906001019060200180831161026657829003601f168201915b50505050508152602001600482015481525050815260200190600101906100c9565b50505050905092915050565b60006040518060a0016040528060008054906101000a900463ffffffff1663ffffffff16815260200186868080601f016020809104026020016040519081016040528093929190818152602001838380828437600081840152601f19601f8201169050808301925050505050505081526020013373ffffffffffffffffffffffffffffffffffffffff16815260200184848080601f016020809104026020016040519081016040528093929190818152602001838380828437600081840152601f19601f820116905080830192505050505050508152602001428152509050600185856040516103a29291906108c1565b908152602001604051809103902081908060018154018082558091505060019003906000526020600020906005020160009091909190915060008201518160000160006101000a81548163ffffffff021916908363ffffffff160217905550602082015181600101908051906020019061041d92919061050c565b5060408201518160020160006101000a81548173ffffffffffffffffffffffffffffffffffffffff021916908373ffffffffffffffffffffffffffffffffffffffff160217905550606082015181600301908051906020019061048192919061050c565b5060808201518160040155505060008081819054906101000a900463ffffffff16809291906104af90610a3e565b91906101000a81548163ffffffff021916908363ffffffff160217905550507fe77ab75f376cc3dcd9506272f00c91ec2ff78acb373dc7b53aedecb1da207022816040516104fd91906108fc565b60405180910390a15050505050565b82805461051890610a0c565b90600052602060002090601f01602090048101928261053a5760008555610581565b82601f1061055357805160ff1916838001178555610581565b82800160010185558215610581579182015b82811115610580578251825591602001919060010190610565565b5b50905061058e9190610592565b5090565b5b808211156105ab576000816000905550600101610593565b5090565b60008083601f8401126105c157600080fd5b8235905067ffffffffffffffff8111156105da57600080fd5b6020830191508360018202830111156105f257600080fd5b9250929050565b6000806020838503121561060c57600080fd5b600083013567ffffffffffffffff81111561062657600080fd5b610632858286016105af565b92509250509250929050565b6000806000806040858703121561065457600080fd5b600085013567ffffffffffffffff81111561066e57600080fd5b61067a878288016105af565b9450945050602085013567ffffffffffffffff81111561069957600080fd5b6106a5878288016105af565b925092505092959194509250565b60006106bf83836107a9565b905092915050565b6106d08161097e565b82525050565b60006106e18261092e565b6106eb8185610951565b9350836020820285016106fd8561091e565b8060005b85811015610739578484038952815161071a85826106b3565b945061072583610944565b925060208a01995050600181019050610701565b50829750879550505050505092915050565b60006107578385610973565b93506107648385846109ca565b82840190509392505050565b600061077b82610939565b6107858185610962565b93506107958185602086016109d9565b61079e81610ac9565b840191505092915050565b600060a0830160008301516107c160008601826108b2565b50602083015184820360208601526107d98282610770565b91505060408301516107ee60408601826106c7565b50606083015184820360608601526108068282610770565b915050608083015161081b60808601826108a3565b508091505092915050565b600060a08301600083015161083e60008601826108b2565b50602083015184820360208601526108568282610770565b915050604083015161086b60408601826106c7565b50606083015184820360608601526108838282610770565b915050608083015161089860808601826108a3565b508091505092915050565b6108ac816109b0565b82525050565b6108bb816109ba565b82525050565b60006108ce82848661074b565b91508190509392505050565b600060208201905081810360008301526108f481846106d6565b905092915050565b600060208201905081810360008301526109168184610826565b905092915050565b6000819050602082019050919050565b600081519050919050565b600081519050919050565b6000602082019050919050565b600082825260208201905092915050565b600082825260208201905092915050565b600081905092915050565b600061098982610990565b9050919050565b600073ffffffffffffffffffffffffffffffffffffffff82169050919050565b6000819050919050565b600063ffffffff82169050919050565b82818337600083830152505050565b60005b838110156109f75780820151818401526020810190506109dc565b83811115610a06576000848401525b50505050565b60006002820490506001821680610a2457607f821691505b60208210811415610a3857610a37610a9a565b5b50919050565b6000610a49826109ba565b915063ffffffff821415610a6057610a5f610a6b565b5b600182019050919050565b7f4e487b7100000000000000000000000000000000000000000000000000000000600052601160045260246000fd5b7f4e487b7100000000000000000000000000000000000000000000000000000000600052602260045260246000fd5b6000601f19601f830116905091905056fea2646970667358221220c7a9cefd0326c57e8936fec5b35f8a40af3131ad1c89f8c5617704757bd8be9464736f6c63430008040033",
  "linkReferences": {},
  "deployedLinkReferences": {}
}